{
  "contractName": "DappToken",
  "abi": [
    {
      "constant": true,
      "inputs": [],
      "name": "totalSupply",
      "outputs": [
        {
          "name": "",
          "type": "uint256"
        }
      ],
      "payable": false,
      "stateMutability": "view",
      "type": "function"
    },
    {
      "inputs": [],
      "payable": false,
      "stateMutability": "nonpayable",
      "type": "constructor"
    }
  ],
  "bytecode": "0x608060405234801561001057600080fd5b50620f4240600081905550609e806100296000396000f300608060405260043610603f576000357c0100000000000000000000000000000000000000000000000000000000900463ffffffff16806318160ddd146044575b600080fd5b348015604f57600080fd5b506056606c565b6040518082815260200191505060405180910390f35b600054815600a165627a7a72305820e8f43259b5a50ae79aa07452bda8c0f130ed38aef7c0bed86e94c94e96634f0e0029",
  "source": "pragma solidity ^0.4.2;\n\ncontract DappToken{\n    // how many tokens \n\n    // constructor\n\n    //  Public state variable gets writtent to blockchain\n    uint256 public totalSupply;\n\n    constructor()  public {\n        totalSupply = 1000000;\n\n    }\n\n    \n    // Set the tokens\n    // Rea the toal number of token\n}",
  "sourcePath": "/Users/salpalacios/Desktop/blockChainProject/DappUniversityTutes/DappUniversity_BuildOwnCrypto/contracts/DappToken.sol",
  "compiler": {
    "name": "solc",
    "version": "0.4.24+commit.e67f0147.Emscripten.clang"
  },
  "schemaVersion": "2.0.1",
  "updatedAt": "2018-07-31T18:32:33.793Z"
}